{
  "_format": "hh-sol-artifact-1",
  "contractName": "Lock",
  "sourceName": "contracts/Lock.sol",
  "abi": [
    {
      "inputs": [
        {
          "internalType": "address",
          "name": "tokenAddress",
          "type": "address"
        }
      ],
      "stateMutability": "nonpayable",
      "type": "constructor"
    },
    {
      "inputs": [
        {
          "internalType": "uint256",
          "name": "amount",
          "type": "uint256"
        }
      ],
      "name": "lockTokens",
      "outputs": [],
      "stateMutability": "nonpayable",
      "type": "function"
    },
    {
      "inputs": [],
      "name": "lockerCount",
      "outputs": [
        {
          "internalType": "uint256",
          "name": "",
          "type": "uint256"
        }
      ],
      "stateMutability": "view",
      "type": "function"
    },
    {
      "inputs": [
        {
          "internalType": "address",
          "name": "",
          "type": "address"
        }
      ],
      "name": "lockers",
      "outputs": [
        {
          "internalType": "uint256",
          "name": "",
          "type": "uint256"
        }
      ],
      "stateMutability": "view",
      "type": "function"
    },
    {
      "inputs": [],
      "name": "totalLocked",
      "outputs": [
        {
          "internalType": "uint256",
          "name": "",
          "type": "uint256"
        }
      ],
      "stateMutability": "view",
      "type": "function"
    },
    {
      "inputs": [],
      "name": "withdrawTokens",
      "outputs": [],
      "stateMutability": "nonpayable",
      "type": "function"
    }
  ],
  "bytecode": "0x608060405234801561001057600080fd5b506040516109f93803806109f9833981810160405281019061003291906100db565b806000806101000a81548173ffffffffffffffffffffffffffffffffffffffff021916908373ffffffffffffffffffffffffffffffffffffffff16021790555050610108565b600080fd5b600073ffffffffffffffffffffffffffffffffffffffff82169050919050565b60006100a88261007d565b9050919050565b6100b88161009d565b81146100c357600080fd5b50565b6000815190506100d5816100af565b92915050565b6000602082840312156100f1576100f0610078565b5b60006100ff848285016100c6565b91505092915050565b6108e2806101176000396000f3fe608060405234801561001057600080fd5b50600436106100575760003560e01c80632c8e7a211461005c578063568914121461008c5780636e27d889146100aa5780638d8f2adb146100c6578063ccd96eb6146100d0575b600080fd5b610076600480360381019061007191906104e3565b6100ee565b6040516100839190610529565b60405180910390f35b610094610106565b6040516100a19190610529565b60405180910390f35b6100c460048036038101906100bf9190610570565b61010c565b005b6100ce610289565b005b6100d861047a565b6040516100e59190610529565b60405180910390f35b60036020528060005260406000206000915090505481565b60025481565b6000811161014f576040517f08c379a000000000000000000000000000000000000000000000000000000000815260040161014690610620565b60405180910390fd5b60008054906101000a900473ffffffffffffffffffffffffffffffffffffffff1673ffffffffffffffffffffffffffffffffffffffff166323b872dd3330846040518463ffffffff1660e01b81526004016101ac9392919061064f565b602060405180830381600087803b1580156101c657600080fd5b505af11580156101da573d6000803e3d6000fd5b505050506040513d601f19601f820116820180604052508101906101fe91906106be565b5080600360003373ffffffffffffffffffffffffffffffffffffffff1673ffffffffffffffffffffffffffffffffffffffff168152602001908152602001600020600082825461024e919061071a565b925050819055506001600081548092919061026890610770565b9190505550806002600082825461027f919061071a565b9250508190555050565b6000600360003373ffffffffffffffffffffffffffffffffffffffff1673ffffffffffffffffffffffffffffffffffffffff16815260200190815260200160002054905060008111610310576040517f08c379a000000000000000000000000000000000000000000000000000000000815260040161030790610805565b60405180910390fd5b600360003373ffffffffffffffffffffffffffffffffffffffff1673ffffffffffffffffffffffffffffffffffffffff168152602001908152602001600020600090556000600360003373ffffffffffffffffffffffffffffffffffffffff1673ffffffffffffffffffffffffffffffffffffffff16815260200190815260200160002081905550600160008154809291906103ab90610825565b919050555080600260008282546103c2919061084f565b9250508190555060008054906101000a900473ffffffffffffffffffffffffffffffffffffffff1673ffffffffffffffffffffffffffffffffffffffff1663a9059cbb33836040518363ffffffff1660e01b8152600401610424929190610883565b602060405180830381600087803b15801561043e57600080fd5b505af1158015610452573d6000803e3d6000fd5b505050506040513d601f19601f8201168201806040525081019061047691906106be565b5050565b60015481565b600080fd5b600073ffffffffffffffffffffffffffffffffffffffff82169050919050565b60006104b082610485565b9050919050565b6104c0816104a5565b81146104cb57600080fd5b50565b6000813590506104dd816104b7565b92915050565b6000602082840312156104f9576104f8610480565b5b6000610507848285016104ce565b91505092915050565b6000819050919050565b61052381610510565b82525050565b600060208201905061053e600083018461051a565b92915050565b61054d81610510565b811461055857600080fd5b50565b60008135905061056a81610544565b92915050565b60006020828403121561058657610585610480565b5b60006105948482850161055b565b91505092915050565b600082825260208201905092915050565b7f546f6b656e20616d6f756e74206d75737420626520626967676572207468616e60008201527f20302e0000000000000000000000000000000000000000000000000000000000602082015250565b600061060a60238361059d565b9150610615826105ae565b604082019050919050565b60006020820190508181036000830152610639816105fd565b9050919050565b610649816104a5565b82525050565b60006060820190506106646000830186610640565b6106716020830185610640565b61067e604083018461051a565b949350505050565b60008115159050919050565b61069b81610686565b81146106a657600080fd5b50565b6000815190506106b881610692565b92915050565b6000602082840312156106d4576106d3610480565b5b60006106e2848285016106a9565b91505092915050565b7f4e487b7100000000000000000000000000000000000000000000000000000000600052601160045260246000fd5b600061072582610510565b915061073083610510565b9250827fffffffffffffffffffffffffffffffffffffffffffffffffffffffffffffffff03821115610765576107646106eb565b5b828201905092915050565b600061077b82610510565b91507fffffffffffffffffffffffffffffffffffffffffffffffffffffffffffffffff8214156107ae576107ad6106eb565b5b600182019050919050565b7f596f752068617665206e6f20746f6b656e7320746f2077697468647261772e00600082015250565b60006107ef601f8361059d565b91506107fa826107b9565b602082019050919050565b6000602082019050818103600083015261081e816107e2565b9050919050565b600061083082610510565b91506000821415610844576108436106eb565b5b600182039050919050565b600061085a82610510565b915061086583610510565b925082821015610878576108776106eb565b5b828203905092915050565b60006040820190506108986000830185610640565b6108a5602083018461051a565b939250505056fea26469706673582212207d689545b80e9d5f9b1865213b2d5c7879e77a35101042a586f5410a6937e66b64736f6c63430008090033",
  "linkReferences": {},
  "deployedLinkReferences": {}
}